{
  "contractName": "iSeeYouList",
  "abi": [
    {
      "constant": true,
      "inputs": [
        {
          "name": "",
          "type": "uint256"
        }
      ],
      "name": "messages",
      "outputs": [
        {
          "name": "id",
          "type": "uint256"
        },
        {
          "name": "from",
          "type": "string"
        },
        {
          "name": "to",
          "type": "string"
        },
        {
          "name": "message",
          "type": "string"
        },
        {
          "name": "size",
          "type": "int256"
        }
      ],
      "payable": false,
      "stateMutability": "view",
      "type": "function",
      "signature": "0x0d80fefd"
    },
    {
      "constant": true,
      "inputs": [],
      "name": "taskCount",
      "outputs": [
        {
          "name": "",
          "type": "uint256"
        }
      ],
      "payable": false,
      "stateMutability": "view",
      "type": "function",
      "signature": "0xb6cb58a5"
    },
    {
      "inputs": [],
      "payable": false,
      "stateMutability": "nonpayable",
      "type": "constructor",
      "signature": "constructor"
    },
    {
      "constant": false,
      "inputs": [
        {
          "name": "_from",
          "type": "string"
        },
        {
          "name": "_to",
          "type": "string"
        },
        {
          "name": "_message",
          "type": "string"
        },
        {
          "name": "_size",
          "type": "int256"
        }
      ],
      "name": "createMessage",
      "outputs": [],
      "payable": false,
      "stateMutability": "nonpayable",
      "type": "function",
      "signature": "0xcd7d4cce"
    }
  ],
  "bytecode": "0x60806040526000805534801561001457600080fd5b5060408051808201825260048082527f4a75616e00000000000000000000000000000000000000000000000000000000602080840191909152835180850185529182527f4c696c7900000000000000000000000000000000000000000000000000000000828201528351808501909452600a84527f5765206469642069742100000000000000000000000000000000000000000000908401526100c19260056401000000006100c6810204565b610208565b6000805460019081018083556040805160a08101825282815260208082018a81528284018a9052606083018990526080830188905293865284815291909420845181559151805192936101219390850192919091019061016d565b506040820151805161013d91600284019160209091019061016d565b506060820151805161015991600384019160209091019061016d565b506080820151816004015590505050505050565b828054600181600116156101000203166002900490600052602060002090601f016020900481019282601f106101ae57805160ff19168380011785556101db565b828001600101855582156101db579182015b828111156101db5782518255916020019190600101906101c0565b506101e79291506101eb565b5090565b61020591905b808211156101e757600081556001016101f1565b90565b610705806102176000396000f3fe6080604052600436106100565763ffffffff7c01000000000000000000000000000000000000000000000000000000006000350416630d80fefd811461005b578063b6cb58a5146101d7578063cd7d4cce146101fe575b600080fd5b34801561006757600080fd5b506100856004803603602081101561007e57600080fd5b50356103c3565b60405180868152602001806020018060200180602001858152602001848103845288818151815260200191508051906020019080838360005b838110156100d65781810151838201526020016100be565b50505050905090810190601f1680156101035780820380516001836020036101000a031916815260200191505b50848103835287518152875160209182019189019080838360005b8381101561013657818101518382015260200161011e565b50505050905090810190601f1680156101635780820380516001836020036101000a031916815260200191505b50848103825286518152865160209182019188019080838360005b8381101561019657818101518382015260200161017e565b50505050905090810190601f1680156101c35780820380516001836020036101000a031916815260200191505b509850505050505050505060405180910390f35b3480156101e357600080fd5b506101ec610591565b60408051918252519081900360200190f35b34801561020a57600080fd5b506103c16004803603608081101561022157600080fd5b81019060208101813564010000000081111561023c57600080fd5b82018360208201111561024e57600080fd5b8035906020019184600183028401116401000000008311171561027057600080fd5b91908080601f01602080910402602001604051908101604052809392919081815260200183838082843760009201919091525092959493602081019350359150506401000000008111156102c357600080fd5b8201836020820111156102d557600080fd5b803590602001918460018302840111640100000000831117156102f757600080fd5b91908080601f016020809104026020016040519081016040528093929190818152602001838380828437600092019190915250929594936020810193503591505064010000000081111561034a57600080fd5b82018360208201111561035c57600080fd5b8035906020019184600183028401116401000000008311171561037e57600080fd5b91908080601f0160208091040260200160405190810160405280939291908181526020018383808284376000920191909152509295505091359250610597915050565b005b600160208181526000928352604092839020805481840180548651600296821615610100026000190190911695909504601f8101859004850286018501909652858552909491939290919083018282801561045f5780601f106104345761010080835404028352916020019161045f565b820191906000526020600020905b81548152906001019060200180831161044257829003601f168201915b50505060028085018054604080516020601f60001961010060018716150201909416959095049283018590048502810185019091528181529596959450909250908301828280156104f15780601f106104c6576101008083540402835291602001916104f1565b820191906000526020600020905b8154815290600101906020018083116104d457829003601f168201915b5050505060038301805460408051602060026001851615610100026000190190941693909304601f81018490048402820184019092528181529495949350908301828280156105815780601f1061055657610100808354040283529160200191610581565b820191906000526020600020905b81548152906001019060200180831161056457829003601f168201915b5050505050908060040154905085565b60005481565b6000805460019081018083556040805160a08101825282815260208082018a81528284018a9052606083018990526080830188905293865284815291909420845181559151805192936105f29390850192919091019061063e565b506040820151805161060e91600284019160209091019061063e565b506060820151805161062a91600384019160209091019061063e565b506080820151816004015590505050505050565b828054600181600116156101000203166002900490600052602060002090601f016020900481019282601f1061067f57805160ff19168380011785556106ac565b828001600101855582156106ac579182015b828111156106ac578251825591602001919060010190610691565b506106b89291506106bc565b5090565b6106d691905b808211156106b857600081556001016106c2565b9056fea165627a7a72305820fd5990e3b335f7c928fd96521bbb6f9d0a3e9713d82c31329a768f621e1a60090029",
  "source": "pragma solidity ^0.5.0;\n\ncontract iSeeYouList {\n    uint256 public taskCount = 0;\n\n    struct Message {\n        uint256 id;\n        string from;\n        string to;\n        string message;\n        int256 size;\n    }\n\n    mapping(uint256 => Message) public messages;\n\n    constructor() public {\n        createMessage(\"Juan\", \"Lily\", \"We did it!\", 5);\n    }\n\n    function createMessage(\n        string memory _from,\n        string memory _to,\n        string memory _message,\n        int256 _size\n    ) public {\n        taskCount++;\n        messages[taskCount] = Message(taskCount, _from, _to, _message, _size);\n    }\n}\n",
  "sourcePath": "/Users/juan/Development/Blockchain/eth-todo-list/contracts/iSeeYouList.sol",
  "compiler": {
    "name": "solc",
    "version": "0.5.0+commit.1d4f565a.Emscripten.clang"
  },
  "schemaVersion": "3.0.1",
  "updatedAt": "2022-01-04T22:12:56.774Z",
  "devdoc": {
    "methods": {}
  },
  "userdoc": {
    "methods": {}
  }
}